:100000000C9434000C943E000C943E000C943E0082
:100010000C943E000C943E000C943E000C943E0068
:100020000C943E000C943E000C943E000C943E0058
:100030000C943E000C943E000C943E000C943E0048
:100040000C943E000C943E000C943E000C943E0038
:100050000C943E000C943E000C943E000C943E0028
:100060000C943E000C943E0011241FBECFEFD8E04C
:10007000DEBFCDBF0E9474000C9478000C94000089
:10008000CF93DF93D90125B1E1E0F0E0EF0102C0A9
:10009000CC0FDD1F6A95E2F7BE019C2F909592234D
:1000A00095B901C0EE0F8A95EAF75E2FE09588E0DA
:1000B00090E025B1ED01C170DD27042E01C0CC0F09
:1000C0000A94EAF72C2B25B9B595A79535B1352BB0
:1000D00035B935B13E2335B9019759F785B1862B2E
:1000E00085B9DF91CF91089587E284B92D9AFECF2B
:0400F000F894FFCFB2
:00000001FF
