:100000000C9434000C943E000C943E000C943E0082
:100010000C943E000C943E000C943E000C943E0068
:100020000C943E000C943E000C943E000C943E0058
:100030000C943E000C943E000C943E000C943E0048
:100040000C943E000C943E000C943E000C943E0038
:100050000C943E000C943E000C943E000C943E0028
:100060000C943E000C943E0011241FBECFEFD8E04C
:10007000DEBFCDBF0E9474000C9492000C9400006F
:10008000D901E1E0F0E09F0102C0220F331F4A9541
:10009000E2F7A901722F409501C0EE0F8A95EAF7A9
:1000A0005E2FE09588E090E025B1A0FF1BC0272BD4
:1000B00025B9B595A79535B1352B35B935B13E2361
:1000C00035B9019789F725B181E090E001C0880F2B
:1000D0006A95EAF7922F982B95B995B18095892367
:1000E00085B908952423E4CF87E084B9D0E0C0E047
:1000F0002FEF83EC99E0215080409040E1F700C061
:10010000000010E000E09E0142E050E061E070E09D
:1001100090E080E00E9440002196C11521E0D207C6
:0801200039F7E4CFF894FFCF9A
:00000001FF
