:100000000C9434000C943E000C943E000C943E0082
:100010000C943E000C943E000C943E000C943E0068
:100020000C943E000C943E000C943E000C943E0058
:100030000C943E000C943E000C943E000C943E0048
:100040000C943E000C943E000C943E000C943E0038
:100050000C943E000C943E000C943E000C943E0028
:100060000C943E000C943E0011241FBECFEFD8E04C
:10007000DEBFCDBF0E94A4000C94C6000C9400000B
:100080000F931F930130110599F5D80102C0AA0FF3
:10009000BB1F4A95E2F7AD01EA2F409501C0000F62
:1000A0008A95EAF7702F009588E090E055B120FF1F
:1000B0001DC05E2B55B93595279555B1572B55B9B0
:1000C00055B1502355B9019789F725B181E090E0EA
:1000D00001C0880F6A95EAF7922F982B95B995B1D0
:1000E0008095892385B91F910F9108955423E2CFFC
:1000F000012B59F7322F2227E1E0F0E0DF0102C0A7
:10010000AA0FBB1F4A95E2F7AD017A2F4095DF0198
:1001100002C0AA0FBB1F8A95E2F7CD015A2F809526
:10012000E8E0F0E095B137FF0DC0972B95B9220FAD
:10013000331F95B1952B95B995B1982395B9319702
:1001400089F7C3CF9423F2CF87E084B9EE24E394F8
:10015000F12C21E0E226D0E0C0E08FEF93EC29E023
:10016000815090402040E1F700C0000087019E01CF
:1001700042E050E061E070E090E080E00E944000EA
:100180002196C11581E0D80741F7E3CFF894FFCF5E
:00000001FF
